:020000040800F2
:10000000000001201D180008A9090008AB0900081C
:10001000AD090008AF090008B109000800000000A0
:10002000000000000000000000000000B30900080C
:10003000B509000800000000B7090008B909000868
:100040006D1800086D1800086D1800086D1800087C
:100050006D1800086D1800086D1800086D1800086C
:100060006D1800086D1800086D1800086D1800085C
:100070006D1800086D1800086D1800086D1800084C
:100080006D1800086D1800086D18000800000000C9
:100090000000000000000000000000006D180008D3
:1000A0006D1800086D1800086D1800086D1800081C
:1000B0006D1800086D1800086D1800086D1800080C
:1000C0006D1800086D1800086D1800086D180008FC
:1000D0006D1800086D1800086D1800080000000079
:1000E0006D1800086D1800086D1800080000000069
:1000F0000000000000000000000000006D18000873
:10010000000000006D1800086D1800086D18000848
:1001100000000000000000000000000000000000DF
:100120006D1800086D1800086D1800086D1800089B
:100130006D18000800000000000000000000000032
:100140000000000000000000000000006D18000822
:100150006D1800086D1800086D1800086D1800086B
:100160006D1800086D180008000000000000000075
:10017000000000000000000000000000000000007F
:10018000000000006D1800080000000000000000E2
:040190006D180008DE
:1001A000034613F8012B002AFBD1181A01387047B7
:1001B00001F0FF01102A2BDB10F0070F08D010F818
:1001C000013B013A8B422DD010F0070F42B3F6D11C
:1001D000F0B441EA012141EA014122F007047FF035
:1001E00000070023F0E80256083C85EA010586EA8C
:1001F000010685FA47F5A3FA87F586FA47F6A5FAC8
:1002000087F68EB9EED1F0BC01F0FF0102F00702D3
:1002100032B110F8013B013A83EA010313B1F8D17E
:100220000020704701387047002D06BF354603385F
:10023000073815F0010F07D1013015F4807F02BF98
:10024000013015F4C03F0130F0BC0138704700BFE9
:1002500053B94AB9002908BF00281CBF4FF0FF312D
:100260004FF0FF3000F00CB8ADF1080C6DE904CE92
:1002700001F0ACFFDDF804E0DDE9022304B07047D3
:10028000704700BF0348044B834202D0034B03B1C5
:10029000184770475C0000205C0000200000000050
:1002A0000548064B1B1AD90F01EBA301491002D0D8
:1002B000034B03B1184770475C0000205C0000202E
:1002C0000000000010B5064C237843B9FFF7DAFFB1
:1002D000044B13B10448AFF300800123237010BD19
:1002E0005C00002000000000C424000808B5054B95
:1002F0001BB105490548AFF30080BDE80840FFF792
:10030000CFBF00BF0000000060000020C424000830
:1003100010B5074C00220421204601F09FF964200B
:1003200001F05EFA01220421204601F097F910BD88
:100330000000024010B582B08DF807000C4C00227E
:100340000821204601F08AF900221021204601F000
:1003500085F94FF0FF3301220DF10701054800F048
:100360004EFC01221021204601F078F902B010BDA8
:10037000000002407800002010B582B08DF8070020
:100380000C4C01220821204601F068F900221021BE
:10039000204601F063F94FF0FF3301220DF1070110
:1003A000054800F02CFC01221021204601F056F9EE
:1003B00002B010BD000002407800002008B5FFF731
:1003C000A7FFAE20FFF7B6FFD520FFF7B3FF8020D1
:1003D000FFF7B0FFA820FFF7ADFF3F20FFF7AAFF10
:1003E000D320FFF7A7FF0020FFF7A4FF4020FFF76F
:1003F000A1FF8D20FFF79EFF1420FFF79BFF202019
:10040000FFF798FF0020FFF795FFA020FFF792FF6E
:10041000C020FFF78FFFDA20FFF78CFF1220FFF7D5
:1004200089FF8120FFF786FFCF20FFF783FFD920C8
:10043000FFF780FFF120FFF77DFFDB20FFF77AFF5A
:100440004020FFF777FFA420FFF774FFA620FFF7F7
:1004500071FFAF20FFF76EFF08BD38B505460C46AB
:100460002120FFF767FF2846FFF764FF7F20FFF793
:1004700061FF2220FFF75EFF2046FFF75BFF0720AA
:10048000FFF758FF38BD10B500210846FFF7E5FF1C
:10049000002404E00020FFF76FFF0134A4B2B4F59C
:1004A000806FF7D310BD00002DE9F041A2F12005C7
:1004B000EDB25E2D16D806460F46002410E005EB7F
:1004C0004502094B03EB420313F80480A019394697
:1004D000C0B2FFF7C2FF4046FFF74EFF0134E4B25F
:1004E000052CECD9BDE8F0813825000870B504462C
:1004F0000E46154606E031462046FFF7D5FF063486
:10050000E4B201352A78002AF5D170BD30B585B046
:10051000041E2ADB01AD22461749284601F0A8F93E
:10052000164A00210846FFF7E1FF2A460221002073
:10053000FFF7DCFF2846FFF733FE00EB40004000EA
:100540005D22022100F0FE00FFF7AEFF2846FFF714
:1005500027FE013000EB400040004322022100F062
:10056000FE00FFF7A1FF05B030BD2D2202210020C3
:10057000FFF79AFF6442CDE72C25000830250008DC
:100580002DE9F04194B080460E4617464D2276493B
:10059000684601F0BDF9354601E00135EDB2731D45
:1005A000AB420CDB29464046FFF757FF0024132CD3
:1005B000F3D80020FFF7E0FE0134E4B2F7E764204F
:1005C00001F00EF9C7EBC70350336B4413F8503CEE
:1005D000002B35D1C7EBC70350336B4413F84A3CAB
:1005E000002B40D1C7EBC70350336B4413F84D3C8D
:1005F000002B4CD1C7EBC70350336B4413F84B3C73
:10060000002B6BD1C7EBC70350336B4413F84F3C3F
:10061000002B7AD1C7EBC70350336B4413F84C3C23
:10062000002B40F08780C7EBC70707F150036B44EE
:1006300013F84E3C002B40F0948014B0BDE8F081DC
:1006400008F103003146C0B2FFF707FF002404E0C1
:10065000FF20FFF791FE0134E4B20D2CF8D93220CF
:1006600001F0BEF8B6E7B11C08F10303C9B2D8B275
:10067000FFF7F3FE002404E0FF20FFF77DFE0134C6
:10068000E4B20D2CF8D9322001F0AAF8AAE7311D06
:1006900008F10303C9B2D8B2FFF7DFFE002404E07B
:1006A000FF20FFF769FE0134E4B20D2CF8D93220A7
:1006B00001F096F89EE7A119C9B24046FFF7CDFEBA
:1006C000FF20FFF759FEFF20FFF756FE0134E4B28A
:1006D000022CF0D9322001F083F893E70024F7E7E9
:1006E000A11908F11100C9B2C0B2FFF7B6FEFF2090
:1006F000FFF742FEFF20FFF73FFE0134E4B2022C79
:10070000EED9322001F06CF884E70024F7E7A11954
:10071000C9B24046FFF7A1FEFF20FFF72DFEFF20E4
:10072000FFF72AFE0134E4B2042CF0D9322001F0A4
:1007300057F878E70224F7E7A11908F11100C9B2C8
:10074000C0B2FFF78AFEFF20FFF716FEFF20FFF77B
:1007500013FE0134E4B2042CEED9322001F040F84B
:100760006BE70224F7E700BFDC24000870B50446FD
:100770000E46154608E0013506E031462046FFF7F3
:10078000FFFE1434E4B201352B7843B1A3F13002FB
:10079000D2B2092AF1D9432BEDD10A22EDE770BD7F
:1007A00072B6FEE710B594B008AC302200212046A6
:1007B00001F080F8002303930493059306930793B5
:1007C00001931E4A116C41F080511164126C02F0C9
:1007D00080520192019A029319490A6822F4404218
:1007E00042F400420A600A6802F440420292029A0D
:1007F000032208924FF48032099201220B921022B8
:100800000C920E93204600F0DDFA90B90F2303936B
:1008100001230493002105910691079103A800F09C
:1008200089FD40B900221146104600F0C7FC14B003
:1008300010BDFFF7B5FFFFF7B3FF00BF0038024060
:100840000070004008B500F09FFFFFF7ABFF00F01D
:1008500011F800F04FF8FFF7B1FDFFF714FE172075
:10086000FFF754FE024A02212820FFF77FFFFEE730
:100870003425000870B588B003AD002403940494B7
:100880000594069407940194184B1A6B42F0800269
:100890001A631A6B02F080020192019A02941A6B99
:1008A00042F001021A631B6B03F001030293029BE7
:1008B0000F4E22461C21304600F0D0FE1C2303932D
:1008C00001230493059406942946304600F0E2FD86
:1008D0004FF48073039302230493059406940794C2
:1008E0002946304600F0D6FD08B070BD0038024001
:1008F0000000024008B50E480E4B03604FF48273AF
:10090000436000238360C360036143614FF400725E
:1009100082611022C2610362436283620A23C3625E
:1009200000F00EF900B908BDFFF73AFFFBE700BF82
:10093000780000200030014000B589B00023039307
:1009400004930593069307930268154B9A4202D0CD
:1009500009B05DF804FB0021019103F584335A6C62
:1009600042F480525A645A6C02F480520192019A05
:1009700002911A6B42F001021A631B6B03F0010330
:100980000293029BE0230393022304930323069321
:100990000523079303A9034800F07CFDD8E700BFB7
:1009A0000030014000000240FEE7FEE7FEE7FEE700
:1009B000FEE770477047704708B500F0FFFE08BDBE
:1009C00082B0002100910B4B5A6C42F480425A6471
:1009D0005A6C02F480420092009A01911A6C42F023
:1009E00080521A641B6C03F080530193019B02B088
:1009F000704700BF003802402DE9F04782B005463D
:100A0000884617461E4600F0E5FE0A9B1B1A03EBBC
:100A1000060900F0DFFE8246284B1B68C3F3CB3388
:100A200009FB03F301932B689C6838EA04040CBFAC
:100A300001230023BB423DD0B6F1FF3FF3D000F0CD
:100A4000C9FEA0EB0A00484507D2019A02B14A4606
:100A5000019B013B01939146E5E72A68536823F027
:100A6000E00353606B68B3F5827F0BD0AB6AB3F5DC
:100A7000005F14D0012385F85130002385F85030F1
:100A8000032018E0AB68B3F5004F02D0B3F5806FD8
:100A9000ECD12A68136823F040031360E6E72A6864
:100AA000136823F4005313602A68136843F4005357
:100AB0001360DFE7002002B0BDE8F08708000020E7
:100AC00070B584B004460D46164600920B460122CE
:100AD0000221FFF791FFD0B9174B1B68174AA2FB01
:100AE00003235B0D4FF47A7202FB03F303936368F5
:100AF000B3F5827F11D0039B3BB1039B013B039372
:100B000023689B6813F0800FF5D104B070BD636D4E
:100B100043F0200363650320F7E700962B4600228D
:100B200080212046FFF768FF0028EED0636D43F078
:100B3000200363650320E8E708000020819F5E161C
:100B400000285AD010B50446436A33B94368B3F558
:100B5000827F05D00023C36102E00023036143616B
:100B60000023A36294F85130002B40D0022384F874
:100B700051302268136823F040031360636803F464
:100B80008273A26802F404421343E26802F4006232
:100B90001343226902F002021343626902F0010268
:100BA0001343A26902F400721343E26902F03802AF
:100BB0001343226A02F080021343A26A02F4005235
:100BC000216813430B60638B03F00403626A02F035
:100BD0001002216813434B602268D36923F4006339
:100BE000D36100206065012384F8513010BD84F882
:100BF00050302046FFF7A0FEB8E7012070472DE9EE
:100C0000F04383B00446894690461D4600F0E2FD5D
:100C100094F85130012B40F0CD800646DFB2B9F197
:100C2000000F00F0C880B8F1000F00F0C48094F805
:100C30005030012B00F0C380012384F8503003238F
:100C400084F8513000236365C4F83090A4F83480F0
:100C5000A4F83680A363A387E38763642364A3684F
:100C6000B3F5004F1ED023681A6812F0400F03D16D
:100C70001A6842F040021A60E368B3F5006F1CD0B6
:100C8000636813B1B8F1010F5FD1226B236812784A
:100C90001A73236B01332363E38E9BB2013B9BB238
:100CA000E38652E02268136823F040031360226851
:100CB000136843F480431360D5E7636813B1B8F158
:100CC000010F15D1226B23681288DA60236B02337F
:100CD0002363E38E9BB2013B9BB2E38608E000F006
:100CE00079FD801BA84202D3B5F1FF3F15D1A5B114
:100CF000E38E9BB2002B42D023689A6812F0020F59
:100D0000EDD0226B1288DA60236B02332363E38E0B
:100D10009BB2013B9BB2E386EAE7012384F85130A2
:100D2000002384F85030032745E0226B12781A73B1
:100D3000236B01332363B4F836C01FFA8CFC0CF12B
:100D4000FF3C1FFA8CFCA4F836C0E38E9BB2B3B113
:100D500023689A6812F0020FE7D100F03BFD801B78
:100D6000A84202D3B5F1FF3F01D1002DEDD10123FF
:100D700084F85130002384F8503003271BE03246BA
:100D800029462046FFF79CFE08B120236365A3682F
:100D900033B901932368DA6801929B680193019B40
:100DA000012384F85130002384F85030636D13B967
:100DB000002700E00227384603B0BDE8F083022791
:100DC000F9E70000002800F0E08170B582B0044629
:100DD000036813F0010F3BD09F4B9B6803F00C039B
:100DE000042B2CD09C4B9B6803F00C03082B21D0C8
:100DF0006368B3F5803F4FD0B3F5A02F52D0964B28
:100E00001A6822F480321A601A6822F480221A606A
:100E10006368002B50D000F0DDFC05468E4B1B684C
:100E200013F4003F14D100F0D5FC401B6428F5D921
:100E30000320B1E1884B5B6813F4800FD8D0864B58
:100E40001B6813F4003F03D06368002B00F09F8100
:100E5000236813F0020F54D07F4B9B6813F00C0FE4
:100E60003ED07D4B9B6803F00C03082B33D0E36826
:100E7000002B68D0794B01221A6000F0ABFC0546CC
:100E8000754B1B6813F0020F54D100F0A3FC401BFC
:100E90000228F5D903207FE16F4A136843F48033B9
:100EA0001360B5E76C4B1A6842F480221A601A6826
:100EB00042F480321A60ABE700F08CFC0546664BCA
:100EC0001B6813F4003FC3D000F084FC401B64286F
:100ED000F5D9032060E1604B5B6813F4800FC6D145
:100EE0005D4B1B6813F0020F03D0E368012B40F049
:100EF0005081594A136823F0F803216943EAC1037A
:100F00001360236813F0080F42D063696BB3534B2F
:100F10000122C3F8802E00F05DFC05464E4B5B6F4E
:100F200013F0020F34D100F055FC401B0228F5D914
:100F3000032031E1484A136823F0F803216943EAAA
:100F4000C1031360DDE7454B00221A6000F042FC4C
:100F50000546414B1B6813F0020FD2D000F03AFC5B
:100F6000401B0228F5D9032016E13C4B0022C3F8B0
:100F7000802E00F02FFC0546374B5B6F13F0020FFD
:100F800006D000F027FC401B0228F5D9032003E11E
:100F9000236813F0040F77D02F4B1B6C13F0805F86
:100FA00033D1002301932C4B1A6C42F080521A6407
:100FB0001B6C03F080530193019B0125284B1B6898
:100FC00013F4807F23D0A368012B34D0052B38D0B5
:100FD000214B1A6F22F001021A671A6F22F00402E5
:100FE0001A67A368002B3DD000F0F4FB06461A4BAD
:100FF0001B6F13F0020F46D100F0ECFB801B41F297
:1010000088339842F3D90320C6E00025D6E7144A76
:10101000136843F48073136000F0DCFB0646104B4A
:101020001B6813F4807FCED100F0D4FB801B022814
:10103000F5D90320B0E0084A136F43F001031367AA
:10104000CFE7054B1A6F42F004021A671A6F42F09D
:1010500001021A67C5E700BF00380240000047429E
:101060000070004000F0B6FB0646524B1B6F13F0B9
:10107000020F08D000F0AEFB801B41F2883398428B
:10108000F3D9032088E0EDB9A369002B00F0838039
:10109000484A926802F00C02082A51D0022B17D05D
:1010A000454B00221A6600F095FB0446414B1B6835
:1010B00013F0007F42D000F08DFB001B0228F5D911
:1010C000032069E03B4A136C23F080531364DBE791
:1010D000394B00221A6600F07DFB0546354B1B6834
:1010E00013F0007F06D000F075FB401B0228F5D9F5
:1010F000032051E0E369226A1343626A43EA8213E0
:10110000A26A5208013A43EA0243E26A43EA0263EE
:10111000284A5360284B01221A6600F05BFB044604
:10112000244B1B6813F0007F06D100F053FB001B1B
:101130000228F5D903202FE000202DE000202BE02D
:10114000012B2BD01B4B5B6803F48001E2699142B9
:1011500026D103F03F02216A8A4223D1616A47F611
:10116000C0721A40B2EB811F1ED103F44031A26A53
:101170005208013AB1EB024F18D103F07063E26AF2
:10118000B3EB026F14D1002006E00120704701206C
:1011900002E0012000E0002002B070BD0120FBE76A
:1011A0000120F9E70120F7E70120F5E70120F3E747
:1011B0000120F1E7003802400000474270B588B0D6
:1011C0000C46154600BB00230193204E326B42F0C3
:1011D00001023263326B02F001020192019A4FF474
:1011E00080720392022204920322069205930793CF
:1011F00003A9174800F04EF9B36823F0EC632543C8
:101200001D43B56008B070BD002302930F4E326BD2
:1012100042F004023263326B02F004020292029A3C
:101220004FF4007203920222049203220692059365
:10123000079303A9074800F02DF9B36823F078431A
:1012400044EAC5041C43B460DCE700BF0038024038
:10125000000002400008024008B5334B9B6803F0D1
:101260000C03042B5BD0082B5BD12F4B5A6802F088
:101270003F025B6813F4800F2CD02B4B5868C0F3EF
:1012800088104FEA401CBCEB000C6EEB0E0E4FEAD0
:101290008E1343EA9C634FEA8C11B1EB0C0163EBB4
:1012A0000E03DB0043EA5173C90011EB000C43F15C
:1012B0000003590200234FEA4C2041EADC51FEF7BB
:1012C000C7FF194B5B68C3F3014301335B00B0FBFD
:1012D000F3F008BD144B5868C0F388104FEA401C67
:1012E000BCEB000C6EEB0E0E4FEA8E1343EA9C63D0
:1012F0004FEA8C11B1EB0C0163EB0E03DB0043EA08
:101300005173C90011EB000C43F100039902002353
:101310004FEA8C2041EA9C51FEF79AFFD1E703483F
:10132000D7E70348D5E700BF0038024000127A0033
:101330000024F400002800F09B8070B50D460446A0
:101340004F4B1B6803F007038B4208D2CBB24C4AC9
:101350001370136803F007038B4240F08B802368FF
:1013600013F0020F17D013F0040F04D0454A93680E
:1013700043F4E0539360236813F0080F04D0414A0C
:10138000936843F4604393603E4A936823F0F0030C
:10139000A1680B439360236813F0010F32D0636898
:1013A000012B21D09A1E012A25D9364A126812F043
:1013B000020F61D033498A6822F0030213438B6025
:1013C00000F008FA06462F4B9B6803F00C03626896
:1013D000B3EB820F16D000F0FDF9801B41F2883389
:1013E0009842F0D9032042E0264A126812F4003FE6
:1013F000E0D101203BE0234A126812F0007FD9D1EE
:10140000012034E01E4B1B6803F00703AB4207D9F1
:10141000EAB21B4B1A701B6803F00703AB422DD1D5
:10142000236813F0040F06D0164A936823F4E053A0
:10143000E1680B439360236813F0080F07D0114A4B
:10144000936823F46043216943EAC1039360FFF783
:1014500003FF0C4B9B68C3F303130B4AD35CD840C8
:101460000A4B18600A4B186800F068F9002070BD3C
:10147000012070470120FAE70120F8E70120F6E794
:10148000003C0240003802406C27000808000020A1
:101490000400002000230F2B00F2D78070B582B02B
:1014A00065E085684FEA430E032404FA0EF425EA4A
:1014B0000405CC6804FA0EF42C438460446824EAE2
:1014C00002044A68C2F300129A40224342605CE080
:1014D000DC08083450F8242003F00705AD004FF075
:1014E0000F0E0EFA05FE22EA0E0E0A69AA4042EA23
:1014F0000E0240F824205CE0042200E0002202FA00
:101500000EF22A430234514D45F82420504A946883
:101510006FEA0C0224EA0C054E6816F4801F01D015
:101520004CEA04054A4CA560E46802EA04054E68EA
:1015300016F4001F01D04CEA0405454CE5606468D0
:1015400002EA04054E6816F4003F01D04CEA040597
:101550003F4C6560246822404D6815F4803F01D0FF
:101560004CEA04023A4C226001330F2B6BD8012263
:101570009A400C6804EA020C32EA0404F4D14C6884
:1015800004F00304013C012C8BD94A6802F00302E9
:10159000032A09D0C4685D000322AA4024EA020499
:1015A0008A68AA402243C2604A6802F00302022A03
:1015B0008ED004684FEA430E032202FA0EF224EAA8
:1015C00002044A6802F0030202FA0EF222430260A9
:1015D0004A6812F4403FC7D0002201921D4A546C61
:1015E00044F480445464526C02F480420192019AA3
:1015F0009C08A51C154A52F8255003F0030E4FEA2B
:101600008E0E0F2202FA0EF225EA0205124A9042CD
:101610003FF474AF02F5806290420ED002F5806212
:1016200090420CD002F5806290420AD002F58062AE
:1016300090423FF461AF072261E701225FE7022297
:101640005DE703225BE702B070BD704700380140E0
:10165000003C014000380240000002400AB18161B4
:101660007047090481617047002808DB0901C9B28D
:1016700000F1604000F5614080F80013704700F011
:101680000F000901C9B2014B1954704714ED00E075
:1016900000B500F00700C0F1070CBCF1040F28BF33
:1016A0004FF0040C031D062B0FD9C31E4FF0FF3E55
:1016B0000EFA0CF021EA000199400EFA03FE22EA2C
:1016C0000E0241EA02005DF804FB0023EEE7000091
:1016D000074AD36823F4E0631B041B0C000200F4E8
:1016E000E060034343F0BF6343F40033D3607047CB
:1016F00000ED00E010B50446054BD868C0F30220A9
:10170000FFF7C6FF01462046FFF7AEFF10BD00BF42
:1017100000ED00E00138B0F1807F0BD24FF0E02304
:101720005861054AF02182F82310002098610722B1
:101730001A6170470120704700ED00E010B50446C3
:101740000E4B1A784FF47A73B3FBF2F30C4A10681D
:10175000B0FBF3F0FFF7DEFF68B90F2C01D90120D1
:101760000AE0002221464FF0FF30FFF7C3FF054B90
:101770001C60002000E0012010BD00BF0000002020
:10178000080000200400002008B50B4B1A6842F442
:1017900000721A601A6842F480621A601A6842F491
:1017A00080721A600320FFF793FF0F20FFF7C6FF38
:1017B000FFF706F9002008BD003C0240034A11680B
:1017C000034B1B780B441360704700BFD000002010
:1017D00000000020014B1868704700BFD0000020B7
:1017E00038B50446FFF7F6FF0546B4F1FF3F02D0D7
:1017F000044B1B781C44FFF7EDFF401BA042FAD3BB
:1018000038BD00BF00000020034AD2F8883043F4FE
:101810007003C2F88830704700ED00E0DFF834D084
:10182000FFF7F2FF0C480D490D4A002302E0D4589F
:10183000C4500433C4188C42F9D30A4A0A4C00231A
:1018400001E013600432A242FBD300F03BF8FEF744
:10185000F9FF704700000120000000205C0000201C
:10186000C02700085C00002020020020FEE70000E6
:101870000EB410B59DB01FAB029006906FF0004102
:101880000A48079104910A4953F8042B0591002452
:1018900002A9006801931B9400F0A0F9029B1C7040
:1018A0001DB0BDE8104003B0704700BF0C00002021
:1018B0000802FFFF02440346934200D1704703F839
:1018C000011BF9E770B50D4B0D4D5B1B9C100026FD
:1018D000A64209D100F0F6FD0A4D0B4B5B1B9C1094
:1018E0000026A64205D170BD55F8043B9847013645
:1018F000EEE755F8043B98470136F2E7B8270008B1
:10190000B8270008B8270008BC27000870477047B0
:101910000A44914200F1FF3300D1704710B511F82D
:10192000014B03F8014F9142F9D110BD38B505467E
:10193000002941D051F8043C0C1F002BB8BFE4181B
:1019400000F0E0F81D4A136833B96360146028465C
:10195000BDE8384000F0DCB8A34208D9206821185F
:101960008B4201BF19685B6809182160EDE71A46D0
:101970005B680BB1A342FAD911685018A0420BD191
:1019800020680144501883421160E0D118685B68F8
:10199000536008441060DAE702D90C232B60D6E7C5
:1019A000206821188B4204BF19685B68636004BF1C
:1019B000091821605460CAE738BD00BF1802002032
:1019C00070B50F4E0C463168054611B900F0AAFB00
:1019D00030602146284600F0A5FB431C03D14FF0A0
:1019E000FF34204670BDC41C24F00304A042F8D08C
:1019F000211A284600F096FB0130F2D1EFE700BF34
:101A0000140200202DE9F843CD1C25F0030508350C
:101A10000C2D38BF0C25002D064601DBA94204D948
:101A20000C2333600020BDE8F883DFF8D48000F099
:101A300069F8D8F800301C4644BB29463046FFF709
:101A4000BFFF431C044658D1D8F800402746002F5A
:101A500043D1002C4BD023683946304604EB0309B0
:101A600000F060FB814542D121686D1A294630465D
:101A7000FFF7A6FF01303AD023682B442360D8F843
:101A800000305A6862BBC8F800700FE02268521B31
:101A900020D40B2A17D96119A342256018BF5960B9
:101AA000636808BFC8F8001062514B60304600F010
:101AB0002FF804F10B00231D20F00700C21A1CBFF1
:101AC0001B1AA350AFE76268A3420CBFC8F80020FE
:101AD0005A60EBE723466468AEE73C467F68B6E7AA
:101AE0001A465B68A342FBD100235360DEE70C2358
:101AF0003360304600F00CF894E70560D6E700BF8D
:101B0000180200200148FFF701BF00BF10020020AB
:101B10000148FFF7FCBE00BF100200202DE9F0478E
:101B20008E681F46BE4282460C469046334653D8C6
:101B3000B1F90C0010F4906F2BD065692368096926
:101B400005EB4505A3EB010905EBD5757B1C6D1075
:101B50004B44AB422A4684BF1D462A46430527D53F
:101B600011465046FFF74EFF064658B321694A46D4
:101B7000FFF7CEFEA38923F4906343F08003A38193
:101B8000266165614E44A5EB09052660A5603E46C9
:101B90003B461F4620683A46414600F0A9FAA36832
:101BA0009B1BA36023683B4423600020BDE8F087B3
:101BB000504600F0C7FA06460028E1D12169504698
:101BC000FFF7B4FE0C23CAF80030A38943F04003AA
:101BD000A3814FF0FF30E9E73E46DBE72DE9F04F08
:101BE00098468B891B069DB007460D46144610D5B6
:101BF0000B6973B94021FFF705FF2860286130B9F0
:101C00000C233B604FF0FF301DB0BDE8F08F402348
:101C10006B610023099320238DF82930CDF80C80C7
:101C20003023DFF89C818DF82A304FF001092346DC
:101C30009A4613F8012B0AB1252AF9D1BAEB040B05
:101C40000BD05B46224629463846FFF767FF013036
:101C500000F0A780099A5A4409929AF80030002BA4
:101C600000F09F8000234FF0FF32CDE905230AF1F9
:101C7000010A049307938DF853301A9354460522B2
:101C800014F8011B4E48FEF793FA049AD8B9D0060F
:101C900044BF20238DF85330110744BF2B238DF808
:101CA00053309AF800302A2B15D0079A544600205A
:101CB0004FF00A0C214611F8013B303B092B4BD960
:101CC000B0B1079214E0A0EB080309FA03F3134341
:101CD0000493A246D2E7039B191D1B680391002BB6
:101CE000BBBF5B4242F0020207930793B8BF049266
:101CF00023782E2B0AD163782A2B32D1039B1A1D0D
:101D00001B68039243EAE37302340593DFF8C0A033
:101D1000217803225046FEF74BFA38B1049BA0EB22
:101D20000A004022824013430134049314F8011B3B
:101D300024488DF828100622FEF73AFA002836D0FB
:101D4000214B1BBB039B073323F00703083303938B
:101D5000099B334409936AE70CFB02320C460120CD
:101D6000A8E700230134059319464FF00A0C2046DA
:101D700010F8012B303A092A03D9002BC6D005915F
:101D8000C4E70CFB012104460123F0E703AB0093F9
:101D90002A460E4B04A93846AFF30080421C064683
:101DA000D6D1AB895B063FF52DAF09982CE703AB85
:101DB00000932A46054B04A9384600F079F8EDE770
:101DC0007C27000886270008000000001D1B000873
:101DD000822700082DE9F047164698468A680B6965
:101DE000DDF820909342B8BF1346336091F843204A
:101DF00007460C460AB1013333602368990642BF97
:101E0000336802333360256815F0060506D104F106
:101E1000190AE36832689B1AAB4226DC94F8433017
:101E20002268003B18BF012392062BD404F1430221
:101E300041463846C84701301ED02368226903F066
:101E40000603042B02BFE5683368ED1AA3680CBFD4
:101E500025EAE57500259342C4BF9B1AED180026BC
:101E60001A34B5421AD1002008E0012352464146F7
:101E70003846C847013003D14FF0FF30BDE8F08746
:101E80000135C6E7E1185A1C302081F8430022448E
:101E900094F8451082F843100233C7E70123224625
:101EA00041463846C8470130E6D00136D9E7000040
:101EB0002DE9FF470F7E0C9E782F914680460C46F9
:101EC0009A4601F1430207D8622F0AD8002F00F08A
:101ED000D280582F00F0B78004F1420684F8427097
:101EE0003AE0A7F16303152BF6D801A151F823F0CE
:101EF000491F00085D1F0008D91E0008D91E0008F0
:101F0000D91E0008D91E00085D1F0008D91E000850
:101F1000D91E0008D91E0008D91E00085D2000083F
:101F2000871F000813200008D91E0008D91E0008CA
:101F30007F200008D91E0008871F0008D91E00084E
:101F4000D91E00081B20000833681A1D1B68326068
:101F500004F1420684F8423001239DE03368206892
:101F6000191D3160060601D51D6803E04506FBD545
:101F7000B3F90050002D03DA2D236D4284F843306D
:101F800059480A2310E021683368080653F8045BB7
:101F900002D4490648BFADB26F2F5348336059D1C0
:101FA0000823002184F843106668A660002E05DB34
:101FB00021682E4321F0040121604DD01646B5FB67
:101FC000F3F103FB1157C75D06F8017D2F46BB42B5
:101FD0000D46F4D9082B0BD12368DF0708D52369F8
:101FE00061689942DEBF302306F8013C06F1FF36F6
:101FF000921B2261CDF800A04B4603AA2146404621
:10200000FFF7E8FE01304CD14FF0FF3004B0BDE8DF
:10201000F087236843F0200323603448782784F84E
:102020004570236831681F0651F8045B02D45F06CF
:1020300048BFADB23160D90744BF43F020032360ED
:102040001DB11023ADE72848E9E7236823F02003FA
:102050002360F6E70A23A4E71646BBE73368256842
:102060006169181D30602E061B6801D5196002E0F9
:102070006806FBD51980002323611646BAE733684A
:102080001A1D32601E68626800213046FEF790F823
:1020900008B1801B606063682361002384F84330CB
:1020A000A8E72369324649464046D0470130ABD0C5
:1020B00023689B0713D4E068039B9842B8BF184677
:1020C000A4E70123324649464046D04701309BD021
:1020D0000135E36803995B1AAB42F2DCEBE70025BC
:1020E00004F11906F5E700BF8D2700089E270008B8
:1020F000884210B501EB020402D98442234607D876
:10210000431EA14207D011F8012B03F8012FF8E775
:102110000244824200D110BD13F8011D02F8011DD6
:10212000F7E7000038B5064D0023044608462B604B
:1021300000F03EF8431C02D12B6803B1236038BD88
:102140000C0200202DE9F041074614460D4621B946
:10215000BDE8F0411146FFF755BC2AB9FFF7E6FB91
:1021600025462846BDE8F08100F01AF8844206466C
:1021700002D8B4EB500FF4D821463846FFF742FCA2
:10218000804608B94546ECE7B4422246294628BFB6
:102190003246FFF7BDFB29463846FFF7C7FBF1E79C
:1021A00051F8043C181F002BBCBF0B58C0187047D7
:1021B000044A05491368002B08BF0B4618441060F9
:1021C000184670471C020020200200202DE9F0472D
:1021D000089D0F4604468C46002B48D18A4216467D
:1021E00061D9B2FA82F34BB1C3F1200201FA03FCC8
:1021F00020FA02F29E4042EA0C0C9C404FEA164E36
:10220000B7B2BCFBFEF1220C0EFB11CC42EA0C4231
:1022100001FB07F0904209D9B21801F1FF3C80F0B0
:10222000EE80904240F2EB8002393244121AA4B29E
:10223000B2FBFEF00EFB102244EA024400FB07F75B
:10224000A74209D9341900F1FF3280F0DA80A742A1
:1022500040F2D7803444023840EA0140E41B0021B8
:102260001DB1DC400023C5E90043BDE8F0878B4287
:1022700006D90DB1C5E9000100210846BDE8F08787
:10228000B3FA83F1002948D1BB4202D3824200F263
:102290000781841A67EB030201209446002DE4D0E5
:1022A000C5E9004CE1E7002A00F09280B2FA82F31F
:1022B000002B40F0A8808A1A4FEA164E1FFA86FCBF
:1022C0000121200CB2FBFEF70EFB172240EA02426E
:1022D0000CFB07F0904207D9B21807F1FF3802D281
:1022E000904200F2E2804746121AA4B2B2FBFEF01E
:1022F0000EFB102244EA02440CFB00FCA44507D963
:10230000341900F1FF3202D2A44500F2CB8010460E
:10231000A4EB0C0440EA0740A2E7C1F120068B4081
:1023200022FA06FC4CEA030C07FA01F420FA06F341
:10233000F7404FEA1C49234300FA01F81FFA8CFECC
:10234000B7FBF9F01C0C09FB107744EA074400FBCB
:102350000EF7A74202FA01F20AD91CEB040400F1BD
:10236000FF3A80F09B80A74240F298800238644494
:10237000E41B9FB2B4FBF9F309FB134447EA04449E
:1023800003FB0EFEA64509D91CEB040403F1FF373D
:1023900080F08280A6457FD9023B644443EA004036
:1023A000A4EB0E04A0FB02E7BC427346B94663D31C
:1023B00060D05DB1B8EB030264EB090404FA06F6E1
:1023C00022FA01F31E43CC40C5E9006400214CE72A
:1023D0006208480842EAC1710B0C43EA00438AB222
:1023E00042EA0342B3FBF6F1E407B4463746B64689
:1023F0001F23B0FBF6F0D21B41EA004161E76146C2
:1024000014E7104628E7C3F1200120FA01F29E40AC
:1024100027FA01F19F403A434FEA164E1FFA86FC15
:10242000B1FBFEF70EFB1710110C41EA004107FB50
:102430000CF8884504FA03F43AD9711807F1FF3013
:1024400001D288451FD8A1EB0801B1FBFEF808FBBB
:102450000CF70EFB181192B242EA0142BA422FD297
:10246000B21808F1FF31C6D2BA42C4D2A8F10201B3
:102470003244C0E7F0459CD2BEEB020367EB0C0789
:102480000138B94695E7A6EB08084144B81EB1FBF0
:10249000FEF808FB0CF7DCE73B467FE7504667E7B2
:1024A0000846FBE63444023832E7023F32441BE779
:1024B000A1EB08013846B1FBFEF808FB0CF7C8E7B2
:1024C000414698E7F8B500BFF8BC08BC9E46704787
:0C24D000F8B500BFF8BC08BC9E46704781
:1024DC0001010101010100000101000000000101E6
:1024EC0000010100010101010100000100010100D6
:1024FC0000010101000101000101010001010101C4
:10250C0001010101000000000101010101010101B3
:10251C0001010100010101000001010100000000A6
:10252C00256400005A4E5000323343000060606056
:10253C0000000000002F000000000700070000143E
:10254C007F147F1400242A7F2A120062640813234C
:10255C0000364955225000000503000000001C22E3
:10256C004100000041221C000014083E0814000821
:10257C00083E0808000000A06000000808080808D1
:10258C00000060600000002010080402003E514969
:10259C00453E0000427F4000004261514946002107
:1025AC0041454B31001814127F1000274545453921
:1025BC00003C4A494930000171090503003649497C
:1025CC00493600064949291E000036360000000035
:1025DC005636000000081422410000141414141480
:1025EC000000412214080002015109060032495929
:1025FC00513E007C1211127C007F49494936003E45
:10260C0041414122007F4141221C007F49494941FF
:10261C00007F09090901003E4149497A007F0808F9
:10262C00087F0000417F4100002040413F01007FB6
:10263C0008142241007F40404040007F020C027F82
:10264C00007F0408107F003E4141413E007F090994
:10265C000906003E4151215E007F091929460046BA
:10266C00494949310001017F0101003F4040403F91
:10267C00001F2040201F003F4038403F00631408DB
:10268C0014630007087008070061514945430000B6
:10269C007F414100000204081020000006090906D1
:1026AC00004040404040000001020400002054540F
:1026BC005478007F4844443800384444442000385F
:1026CC004444487F00385454541800087E090102D1
:1026DC000018A4A4A47C007F080404780000447DA6
:1026EC004000004080847D00007F102844000000E2
:1026FC00417F4000007C04180478007C08040478B6
:10270C0000384444443800FC2424241800182424A1
:10271C0018FC007C0804040800485454542000049D
:10272C003F444020003C4040207C001C2040201CAA
:10273C00003C4030403C004428102844001CA0A021
:10274C00A07C004464544C440000000000000000D5
:10275C00000000000000000000000000000000006D
:10276C000000000000000000010203040607080935
:10277C00232D302B2000686C4C006566674546475E
:10278C0000303132333435363738394142434445E1
:10279C004600303132333435363738396162636450
:0427AC00656600005E
:0827B000F0D9FF7F01000000D9
:0427B800ED02000826
:0427BC00C50200084A
:1027C00001000000100000000024F40010000020B0
:1027D00000000000D40000203C010020A4010020E3
:1027E00000000000000000000000000000000000E9
:1027F00000000000000000000000000000000000D9
:1028000000000000000000000000000000000000C8
:0C281000000000000000000000000000BC
:040000050800181DBA
:00000001FF
